{
  "contractName": "Crud",
  "abi": [
    {
      "inputs": [],
      "name": "nextId",
      "outputs": [
        {
          "internalType": "uint256",
          "name": "",
          "type": "uint256"
        }
      ],
      "stateMutability": "view",
      "type": "function",
      "constant": true
    },
    {
      "inputs": [
        {
          "internalType": "uint256",
          "name": "",
          "type": "uint256"
        }
      ],
      "name": "users",
      "outputs": [
        {
          "internalType": "uint256",
          "name": "id",
          "type": "uint256"
        },
        {
          "internalType": "string",
          "name": "name",
          "type": "string"
        }
      ],
      "stateMutability": "view",
      "type": "function",
      "constant": true
    },
    {
      "inputs": [
        {
          "internalType": "string",
          "name": "name",
          "type": "string"
        }
      ],
      "name": "create",
      "outputs": [],
      "stateMutability": "nonpayable",
      "type": "function"
    },
    {
      "inputs": [
        {
          "internalType": "uint256",
          "name": "id",
          "type": "uint256"
        }
      ],
      "name": "read",
      "outputs": [
        {
          "internalType": "uint256",
          "name": "",
          "type": "uint256"
        },
        {
          "internalType": "string",
          "name": "",
          "type": "string"
        }
      ],
      "stateMutability": "view",
      "type": "function",
      "constant": true
    },
    {
      "inputs": [
        {
          "internalType": "uint256",
          "name": "id",
          "type": "uint256"
        },
        {
          "internalType": "string",
          "name": "name",
          "type": "string"
        }
      ],
      "name": "update",
      "outputs": [],
      "stateMutability": "nonpayable",
      "type": "function"
    },
    {
      "inputs": [
        {
          "internalType": "uint256",
          "name": "id",
          "type": "uint256"
        }
      ],
      "name": "destroy",
      "outputs": [],
      "stateMutability": "nonpayable",
      "type": "function"
    },
    {
      "inputs": [],
      "name": "length",
      "outputs": [
        {
          "internalType": "uint256",
          "name": "",
          "type": "uint256"
        }
      ],
      "stateMutability": "view",
      "type": "function",
      "constant": true
    }
  ],
  "bytecode": "0x60806040526001805534801561001457600080fd5b50610ca2806100246000396000f3fe608060405234801561001057600080fd5b506004361061007d5760003560e01c80639d1187701161005b5780639d118770146100ef578063b6a46b3b1461010b578063ed2e5a9714610127578063f745630f146101585761007d565b80631f7b6d3214610082578063365b98b2146100a057806361b8ce8c146100d1575b600080fd5b61008a610174565b604051610097919061055a565b60405180910390f35b6100ba60048036038101906100b591906105b5565b610180565b6040516100c8929190610672565b60405180910390f35b6100d961023c565b6040516100e6919061055a565b60405180910390f35b610109600480360381019061010491906105b5565b610242565b005b610125600480360381019061012091906107d7565b610290565b005b610141600480360381019061013c91906105b5565b61030f565b60405161014f929190610672565b60405180910390f35b610172600480360381019061016d9190610820565b610401565b005b60008080549050905090565b6000818154811061019057600080fd5b90600052602060002090600202016000915090508060000154908060010180546101b9906108ab565b80601f01602080910402602001604051908101604052809291908181526020018280546101e5906108ab565b80156102325780601f1061020757610100808354040283529160200191610232565b820191906000526020600020905b81548152906001019060200180831161021557829003601f168201915b5050505050905082565b60015481565b600061024d82610446565b905060008181548110610263576102626108dc565b5b906000526020600020906002020160008082016000905560018201600061028a91906104e4565b50505050565b6000604051806040016040528060015481526020018381525090806001815401808255809150506001900390600052602060002090600202016000909190919091506000820151816000015560208201518160010190816102f19190610ab7565b5050506001600081548092919061030790610bb8565b919050555050565b60006060600061031e84610446565b905060008181548110610334576103336108dc565b5b9060005260206000209060020201600001546000828154811061035a576103596108dc565b5b9060005260206000209060020201600101808054610377906108ab565b80601f01602080910402602001604051908101604052809291908181526020018280546103a3906108ab565b80156103f05780601f106103c5576101008083540402835291602001916103f0565b820191906000526020600020905b8154815290600101906020018083116103d357829003601f168201915b505050505090509250925050915091565b600061040c83610446565b90508160008281548110610423576104226108dc565b5b906000526020600020906002020160010190816104409190610ab7565b50505050565b600080600090505b6000805490508110156104a35782600082815481106104705761046f6108dc565b5b9060005260206000209060020201600001540361049057809150506104df565b808061049b90610bb8565b91505061044e565b506040517f08c379a00000000000000000000000000000000000000000000000000000000081526004016104d690610c4c565b60405180910390fd5b919050565b5080546104f0906108ab565b6000825580601f106105025750610521565b601f0160209004906000526020600020908101906105209190610524565b5b50565b5b8082111561053d576000816000905550600101610525565b5090565b6000819050919050565b61055481610541565b82525050565b600060208201905061056f600083018461054b565b92915050565b6000604051905090565b600080fd5b600080fd5b61059281610541565b811461059d57600080fd5b50565b6000813590506105af81610589565b92915050565b6000602082840312156105cb576105ca61057f565b5b60006105d9848285016105a0565b91505092915050565b600081519050919050565b600082825260208201905092915050565b60005b8381101561061c578082015181840152602081019050610601565b60008484015250505050565b6000601f19601f8301169050919050565b6000610644826105e2565b61064e81856105ed565b935061065e8185602086016105fe565b61066781610628565b840191505092915050565b6000604082019050610687600083018561054b565b81810360208301526106998184610639565b90509392505050565b600080fd5b600080fd5b7f4e487b7100000000000000000000000000000000000000000000000000000000600052604160045260246000fd5b6106e482610628565b810181811067ffffffffffffffff82111715610703576107026106ac565b5b80604052505050565b6000610716610575565b905061072282826106db565b919050565b600067ffffffffffffffff821115610742576107416106ac565b5b61074b82610628565b9050602081019050919050565b82818337600083830152505050565b600061077a61077584610727565b61070c565b905082815260208101848484011115610796576107956106a7565b5b6107a1848285610758565b509392505050565b600082601f8301126107be576107bd6106a2565b5b81356107ce848260208601610767565b91505092915050565b6000602082840312156107ed576107ec61057f565b5b600082013567ffffffffffffffff81111561080b5761080a610584565b5b610817848285016107a9565b91505092915050565b600080604083850312156108375761083661057f565b5b6000610845858286016105a0565b925050602083013567ffffffffffffffff81111561086657610865610584565b5b610872858286016107a9565b9150509250929050565b7f4e487b7100000000000000000000000000000000000000000000000000000000600052602260045260246000fd5b600060028204905060018216806108c357607f821691505b6020821081036108d6576108d561087c565b5b50919050565b7f4e487b7100000000000000000000000000000000000000000000000000000000600052603260045260246000fd5b60008190508160005260206000209050919050565b60006020601f8301049050919050565b600082821b905092915050565b60006008830261096d7fffffffffffffffffffffffffffffffffffffffffffffffffffffffffffffffff82610930565b6109778683610930565b95508019841693508086168417925050509392505050565b6000819050919050565b60006109b46109af6109aa84610541565b61098f565b610541565b9050919050565b6000819050919050565b6109ce83610999565b6109e26109da826109bb565b84845461093d565b825550505050565b600090565b6109f76109ea565b610a028184846109c5565b505050565b5b81811015610a2657610a1b6000826109ef565b600181019050610a08565b5050565b601f821115610a6b57610a3c8161090b565b610a4584610920565b81016020851015610a54578190505b610a68610a6085610920565b830182610a07565b50505b505050565b600082821c905092915050565b6000610a8e60001984600802610a70565b1980831691505092915050565b6000610aa78383610a7d565b9150826002028217905092915050565b610ac0826105e2565b67ffffffffffffffff811115610ad957610ad86106ac565b5b610ae382546108ab565b610aee828285610a2a565b600060209050601f831160018114610b215760008415610b0f578287015190505b610b198582610a9b565b865550610b81565b601f198416610b2f8661090b565b60005b82811015610b5757848901518255600182019150602085019450602081019050610b32565b86831015610b745784890151610b70601f891682610a7d565b8355505b6001600288020188555050505b505050505050565b7f4e487b7100000000000000000000000000000000000000000000000000000000600052601160045260246000fd5b6000610bc382610541565b91507fffffffffffffffffffffffffffffffffffffffffffffffffffffffffffffffff8203610bf557610bf4610b89565b5b600182019050919050565b7f5573657220646f6573206e6f7420657869737421000000000000000000000000600082015250565b6000610c366014836105ed565b9150610c4182610c00565b602082019050919050565b60006020820190508181036000830152610c6581610c29565b905091905056fea26469706673582212207e1653a6b511521715beb8c2e8d19eb71cbb22f74a23bbe91b9c1c887919ff7064736f6c63430008120033",
  "immutableReferences": {},
  "source": "// SPDX-License-Identifier: MIT\npragma solidity ^0.8.18;\n\n/*\n\nCRUD:\n\n - Create\n - Read\n - Update\n - Delete\n\n*/\ncontract Crud {\n\n  struct User {\n    uint id;\n    string name;\n  }\n  // Array of users struct\n  User[] public users;\n  uint public nextId = 1;\n\n  // Add an entry to the users array\n  function create(string memory name) public {\n    users.push(User(nextId, name));\n    nextId++;\n  }\n  // Read an entry \n  function read(uint id) view public returns(uint, string memory) {\n    uint i = find(id);\n    return(users[i].id, users[i].name);\n  }\n  // Update an entry\n  function update(uint id, string memory name) public {\n    uint i = find(id);\n    users[i].name = name;\n  }\n  // Delete an entry\n  function destroy(uint id) public {\n    uint i = find(id);\n    delete users[i];\n  }\n  \n  function find(uint id) view internal returns(uint) {\n    for(uint i = 0; i < users.length; i++) {\n      if(users[i].id == id) {\n        return i;\n      }\n    }\n    revert('User does not exist!');\n  }\n\n  function length() view public returns(uint) {\n    return users.length;\n  }\n\n}",
  "sourcePath": "/home/adamzr-vm1/blockchain_ws/DLT_client_example/contracts/Crud.sol",
  "compiler": {
    "name": "solc",
    "version": "0.8.18+commit.87f61d96.Emscripten.clang"
  },
  "schemaVersion": "3.4.12",
  "updatedAt": "2023-05-26T18:07:34.312Z",
  "networkType": "ethereum",
  "devdoc": {
    "kind": "dev",
    "methods": {},
    "version": 1
  },
  "userdoc": {
    "kind": "user",
    "methods": {},
    "version": 1
  }
}